:100000000C9434000C943E000C943E000C943E0082
:100010000C943E000C943E000C943E000C943E0068
:100020000C943E000C943E000C943E000C943E0058
:100030000C943E000C943E000C943E000C943E0048
:100040000C943E000C943E000C943E000C943E0038
:100050000C943E000C943E000C943E000C943E0028
:100060000C943E000C943E0011241FBECFEFD8E04C
:10007000DEBFCDBF0E9451000C9461000C940000C3
:100080008AB1837F8AB98BB1837F8BB9209A2898F4
:1000900008954A9904C088274B9B8395089580E072
:1000A00008950E9440000E944900811541F0289A5D
:1000B00087EA91E60197F1F700C00000F4CF289895
:0600C000F7CFF894FFCF1A
:00000001FF
